{
  "_format": "hh-sol-artifact-1",
  "contractName": "MyEpicGame",
  "sourceName": "contracts/MyEpicGame.sol",
  "abi": [
    {
      "inputs": [
        {
          "internalType": "string[]",
          "name": "names",
          "type": "string[]"
        },
        {
          "internalType": "string[]",
          "name": "uris",
          "type": "string[]"
        },
        {
          "internalType": "uint256[]",
          "name": "volumes",
          "type": "uint256[]"
        },
        {
          "internalType": "uint256[]",
          "name": "notes",
          "type": "uint256[]"
        },
        {
          "internalType": "uint256[]",
          "name": "sizes",
          "type": "uint256[]"
        },
        {
          "internalType": "string",
          "name": "bossName",
          "type": "string"
        },
        {
          "internalType": "string",
          "name": "bossImageURI",
          "type": "string"
        },
        {
          "internalType": "uint256",
          "name": "bossvolume",
          "type": "uint256"
        },
        {
          "internalType": "uint256",
          "name": "bossNotes",
          "type": "uint256"
        },
        {
          "internalType": "uint256",
          "name": "bossSize",
          "type": "uint256"
        }
      ],
      "stateMutability": "nonpayable",
      "type": "constructor"
    },
    {
      "anonymous": false,
      "inputs": [
        {
          "indexed": true,
          "internalType": "address",
          "name": "owner",
          "type": "address"
        },
        {
          "indexed": true,
          "internalType": "address",
          "name": "approved",
          "type": "address"
        },
        {
          "indexed": true,
          "internalType": "uint256",
          "name": "tokenId",
          "type": "uint256"
        }
      ],
      "name": "Approval",
      "type": "event"
    },
    {
      "anonymous": false,
      "inputs": [
        {
          "indexed": true,
          "internalType": "address",
          "name": "owner",
          "type": "address"
        },
        {
          "indexed": true,
          "internalType": "address",
          "name": "operator",
          "type": "address"
        },
        {
          "indexed": false,
          "internalType": "bool",
          "name": "approved",
          "type": "bool"
        }
      ],
      "name": "ApprovalForAll",
      "type": "event"
    },
    {
      "anonymous": false,
      "inputs": [
        {
          "indexed": false,
          "internalType": "address",
          "name": "sender",
          "type": "address"
        },
        {
          "indexed": false,
          "internalType": "uint256",
          "name": "tokenId",
          "type": "uint256"
        },
        {
          "indexed": false,
          "internalType": "uint256",
          "name": "instrumentIndex",
          "type": "uint256"
        }
      ],
      "name": "InstrumentNFTMinted",
      "type": "event"
    },
    {
      "anonymous": false,
      "inputs": [
        {
          "indexed": false,
          "internalType": "uint256",
          "name": "newBossVolume",
          "type": "uint256"
        },
        {
          "indexed": false,
          "internalType": "uint256",
          "name": "newPlayerVolume",
          "type": "uint256"
        }
      ],
      "name": "PlayComplete",
      "type": "event"
    },
    {
      "anonymous": false,
      "inputs": [
        {
          "indexed": true,
          "internalType": "address",
          "name": "from",
          "type": "address"
        },
        {
          "indexed": true,
          "internalType": "address",
          "name": "to",
          "type": "address"
        },
        {
          "indexed": true,
          "internalType": "uint256",
          "name": "tokenId",
          "type": "uint256"
        }
      ],
      "name": "Transfer",
      "type": "event"
    },
    {
      "inputs": [
        {
          "internalType": "address",
          "name": "to",
          "type": "address"
        },
        {
          "internalType": "uint256",
          "name": "tokenId",
          "type": "uint256"
        }
      ],
      "name": "approve",
      "outputs": [],
      "stateMutability": "nonpayable",
      "type": "function"
    },
    {
      "inputs": [
        {
          "internalType": "address",
          "name": "owner",
          "type": "address"
        }
      ],
      "name": "balanceOf",
      "outputs": [
        {
          "internalType": "uint256",
          "name": "",
          "type": "uint256"
        }
      ],
      "stateMutability": "view",
      "type": "function"
    },
    {
      "inputs": [],
      "name": "bigBoss",
      "outputs": [
        {
          "internalType": "string",
          "name": "name",
          "type": "string"
        },
        {
          "internalType": "string",
          "name": "imageURI",
          "type": "string"
        },
        {
          "internalType": "uint256",
          "name": "volume",
          "type": "uint256"
        },
        {
          "internalType": "uint256",
          "name": "notes",
          "type": "uint256"
        },
        {
          "internalType": "uint256",
          "name": "size",
          "type": "uint256"
        }
      ],
      "stateMutability": "view",
      "type": "function"
    },
    {
      "inputs": [],
      "name": "checkIfUserHasNFT",
      "outputs": [
        {
          "components": [
            {
              "internalType": "uint256",
              "name": "instrumentIndex",
              "type": "uint256"
            },
            {
              "internalType": "string",
              "name": "name",
              "type": "string"
            },
            {
              "internalType": "string",
              "name": "imageURI",
              "type": "string"
            },
            {
              "internalType": "uint256",
              "name": "volume",
              "type": "uint256"
            },
            {
              "internalType": "uint256",
              "name": "notes",
              "type": "uint256"
            },
            {
              "internalType": "uint256",
              "name": "size",
              "type": "uint256"
            }
          ],
          "internalType": "struct MyEpicGame.InstrumentAttributes",
          "name": "",
          "type": "tuple"
        }
      ],
      "stateMutability": "view",
      "type": "function"
    },
    {
      "inputs": [],
      "name": "getAllDefaultInstruments",
      "outputs": [
        {
          "components": [
            {
              "internalType": "uint256",
              "name": "instrumentIndex",
              "type": "uint256"
            },
            {
              "internalType": "string",
              "name": "name",
              "type": "string"
            },
            {
              "internalType": "string",
              "name": "imageURI",
              "type": "string"
            },
            {
              "internalType": "uint256",
              "name": "volume",
              "type": "uint256"
            },
            {
              "internalType": "uint256",
              "name": "notes",
              "type": "uint256"
            },
            {
              "internalType": "uint256",
              "name": "size",
              "type": "uint256"
            }
          ],
          "internalType": "struct MyEpicGame.InstrumentAttributes[]",
          "name": "",
          "type": "tuple[]"
        }
      ],
      "stateMutability": "view",
      "type": "function"
    },
    {
      "inputs": [
        {
          "internalType": "uint256",
          "name": "tokenId",
          "type": "uint256"
        }
      ],
      "name": "getApproved",
      "outputs": [
        {
          "internalType": "address",
          "name": "",
          "type": "address"
        }
      ],
      "stateMutability": "view",
      "type": "function"
    },
    {
      "inputs": [],
      "name": "getBigBoss",
      "outputs": [
        {
          "components": [
            {
              "internalType": "string",
              "name": "name",
              "type": "string"
            },
            {
              "internalType": "string",
              "name": "imageURI",
              "type": "string"
            },
            {
              "internalType": "uint256",
              "name": "volume",
              "type": "uint256"
            },
            {
              "internalType": "uint256",
              "name": "notes",
              "type": "uint256"
            },
            {
              "internalType": "uint256",
              "name": "size",
              "type": "uint256"
            }
          ],
          "internalType": "struct MyEpicGame.BigBoss",
          "name": "",
          "type": "tuple"
        }
      ],
      "stateMutability": "view",
      "type": "function"
    },
    {
      "inputs": [
        {
          "internalType": "address",
          "name": "owner",
          "type": "address"
        },
        {
          "internalType": "address",
          "name": "operator",
          "type": "address"
        }
      ],
      "name": "isApprovedForAll",
      "outputs": [
        {
          "internalType": "bool",
          "name": "",
          "type": "bool"
        }
      ],
      "stateMutability": "view",
      "type": "function"
    },
    {
      "inputs": [
        {
          "internalType": "uint256",
          "name": "_instrumentIndex",
          "type": "uint256"
        }
      ],
      "name": "mintInstrumentNFT",
      "outputs": [],
      "stateMutability": "nonpayable",
      "type": "function"
    },
    {
      "inputs": [],
      "name": "name",
      "outputs": [
        {
          "internalType": "string",
          "name": "",
          "type": "string"
        }
      ],
      "stateMutability": "view",
      "type": "function"
    },
    {
      "inputs": [
        {
          "internalType": "uint256",
          "name": "",
          "type": "uint256"
        }
      ],
      "name": "nftHolderAttributes",
      "outputs": [
        {
          "internalType": "uint256",
          "name": "instrumentIndex",
          "type": "uint256"
        },
        {
          "internalType": "string",
          "name": "name",
          "type": "string"
        },
        {
          "internalType": "string",
          "name": "imageURI",
          "type": "string"
        },
        {
          "internalType": "uint256",
          "name": "volume",
          "type": "uint256"
        },
        {
          "internalType": "uint256",
          "name": "notes",
          "type": "uint256"
        },
        {
          "internalType": "uint256",
          "name": "size",
          "type": "uint256"
        }
      ],
      "stateMutability": "view",
      "type": "function"
    },
    {
      "inputs": [
        {
          "internalType": "address",
          "name": "",
          "type": "address"
        }
      ],
      "name": "nftHolders",
      "outputs": [
        {
          "internalType": "uint256",
          "name": "",
          "type": "uint256"
        }
      ],
      "stateMutability": "view",
      "type": "function"
    },
    {
      "inputs": [
        {
          "internalType": "uint256",
          "name": "tokenId",
          "type": "uint256"
        }
      ],
      "name": "ownerOf",
      "outputs": [
        {
          "internalType": "address",
          "name": "",
          "type": "address"
        }
      ],
      "stateMutability": "view",
      "type": "function"
    },
    {
      "inputs": [],
      "name": "playToBoss",
      "outputs": [],
      "stateMutability": "nonpayable",
      "type": "function"
    },
    {
      "inputs": [
        {
          "internalType": "address",
          "name": "from",
          "type": "address"
        },
        {
          "internalType": "address",
          "name": "to",
          "type": "address"
        },
        {
          "internalType": "uint256",
          "name": "tokenId",
          "type": "uint256"
        }
      ],
      "name": "safeTransferFrom",
      "outputs": [],
      "stateMutability": "nonpayable",
      "type": "function"
    },
    {
      "inputs": [
        {
          "internalType": "address",
          "name": "from",
          "type": "address"
        },
        {
          "internalType": "address",
          "name": "to",
          "type": "address"
        },
        {
          "internalType": "uint256",
          "name": "tokenId",
          "type": "uint256"
        },
        {
          "internalType": "bytes",
          "name": "_data",
          "type": "bytes"
        }
      ],
      "name": "safeTransferFrom",
      "outputs": [],
      "stateMutability": "nonpayable",
      "type": "function"
    },
    {
      "inputs": [
        {
          "internalType": "address",
          "name": "operator",
          "type": "address"
        },
        {
          "internalType": "bool",
          "name": "approved",
          "type": "bool"
        }
      ],
      "name": "setApprovalForAll",
      "outputs": [],
      "stateMutability": "nonpayable",
      "type": "function"
    },
    {
      "inputs": [
        {
          "internalType": "bytes4",
          "name": "interfaceId",
          "type": "bytes4"
        }
      ],
      "name": "supportsInterface",
      "outputs": [
        {
          "internalType": "bool",
          "name": "",
          "type": "bool"
        }
      ],
      "stateMutability": "view",
      "type": "function"
    },
    {
      "inputs": [],
      "name": "symbol",
      "outputs": [
        {
          "internalType": "string",
          "name": "",
          "type": "string"
        }
      ],
      "stateMutability": "view",
      "type": "function"
    },
    {
      "inputs": [
        {
          "internalType": "uint256",
          "name": "_tokenId",
          "type": "uint256"
        }
      ],
      "name": "tokenURI",
      "outputs": [
        {
          "internalType": "string",
          "name": "",
          "type": "string"
        }
      ],
      "stateMutability": "view",
      "type": "function"
    },
    {
      "inputs": [
        {
          "internalType": "address",
          "name": "from",
          "type": "address"
        },
        {
          "internalType": "address",
          "name": "to",
          "type": "address"
        },
        {
          "internalType": "uint256",
          "name": "tokenId",
          "type": "uint256"
        }
      ],
      "name": "transferFrom",
      "outputs": [],
      "stateMutability": "nonpayable",
      "type": "function"
    }
  ],
  "bytecode": "0x60806040523480156200001157600080fd5b5060405162005ce338038062005ce3833981810160405281019062000037919062000a87565b6040518060400160405280600b81526020017f496e737472756d656e74730000000000000000000000000000000000000000008152506040518060400160405280600481526020017f494e5354000000000000000000000000000000000000000000000000000000008152508160009080519060200190620000bb929190620007ef565b508060019080519060200190620000d4929190620007ef565b5050506040518060a0016040528086815260200185815260200184815260200183815260200182815250600660008201518160000190805190602001906200011e929190620007ef565b5060208201518160010190805190602001906200013d929190620007ef565b50604082015181600201556060820151816003015560808201518160040155905050620002c06040518060600160405280602e815260200162005cb5602e9139600660000180546200018f9062000e50565b80601f0160208091040260200160405190810160405280929190818152602001828054620001bd9062000e50565b80156200020e5780601f10620001e2576101008083540402835291602001916200020e565b820191906000526020600020905b815481529060010190602001808311620001f057829003601f168201915b5050505050600660020154600660010180546200022b9062000e50565b80601f0160208091040260200160405190810160405280929190818152602001828054620002599062000e50565b8015620002aa5780601f106200027e57610100808354040283529160200191620002aa565b820191906000526020600020905b8154815290600101906020018083116200028c57829003601f168201915b50505050506200070460201b62001fbc1760201c565b60005b8a51811015620006dc57600c6040518060c001604052808381526020018d84815181106200031a577f4e487b7100000000000000000000000000000000000000000000000000000000600052603260045260246000fd5b602002602001015181526020018c848151811062000361577f4e487b7100000000000000000000000000000000000000000000000000000000600052603260045260246000fd5b602002602001015181526020018b8481518110620003a8577f4e487b7100000000000000000000000000000000000000000000000000000000600052603260045260246000fd5b602002602001015181526020018a8481518110620003ef577f4e487b7100000000000000000000000000000000000000000000000000000000600052603260045260246000fd5b6020026020010151815260200189848151811062000436577f4e487b7100000000000000000000000000000000000000000000000000000000600052603260045260246000fd5b6020026020010151815250908060018154018082558091505060019003906000526020600020906006020160009091909190915060008201518160000155602082015181600101908051906020019062000492929190620007ef565b506040820151816002019080519060200190620004b1929190620007ef565b50606082015181600301556080820151816004015560a0820151816005015550506000600c82815481106200050f577f4e487b7100000000000000000000000000000000000000000000000000000000600052603260045260246000fd5b90600052602060002090600602016040518060c001604052908160008201548152602001600182018054620005449062000e50565b80601f0160208091040260200160405190810160405280929190818152602001828054620005729062000e50565b8015620005c35780601f106200059757610100808354040283529160200191620005c3565b820191906000526020600020905b815481529060010190602001808311620005a557829003601f168201915b50505050508152602001600282018054620005de9062000e50565b80601f01602080910402602001604051908101604052809291908181526020018280546200060c9062000e50565b80156200065d5780601f1062000631576101008083540402835291602001916200065d565b820191906000526020600020905b8154815290600101906020018083116200063f57829003601f168201915b5050505050815260200160038201548152602001600482015481526020016005820154815250509050620006c460405180606001604052806029815260200162005c8c602991398260200151836060015184604001516200070460201b62001fbc1760201c565b50600181620006d4919062000db3565b9050620002c3565b50620006f4600b620007b060201b6200205e1760201c565b5050505050505050505062000f74565b620007aa8484848460405160240162000721949392919062000c78565b6040516020818303038152906040527f8d142cdd000000000000000000000000000000000000000000000000000000007bffffffffffffffffffffffffffffffffffffffffffffffffffffffff19166020820180517bffffffffffffffffffffffffffffffffffffffffffffffffffffffff8381831617835250505050620007c660201b60201c565b50505050565b6001816000016000828254019250508190555050565b60008151905060006a636f6e736f6c652e6c6f679050602083016000808483855afa5050505050565b828054620007fd9062000e50565b90600052602060002090601f0160209004810192826200082157600085556200086d565b82601f106200083c57805160ff19168380011785556200086d565b828001600101855582156200086d579182015b828111156200086c5782518255916020019190600101906200084f565b5b5090506200087c919062000880565b5090565b5b808211156200089b57600081600090555060010162000881565b5090565b6000620008b6620008b08462000d03565b62000cda565b90508083825260208201905082856020860282011115620008d657600080fd5b60005b858110156200092557815167ffffffffffffffff811115620008fa57600080fd5b80860162000909898262000a43565b85526020850194506020840193505050600181019050620008d9565b5050509392505050565b600062000946620009408462000d32565b62000cda565b905080838252602082019050828560208602820111156200096657600080fd5b60005b858110156200099a57816200097f888262000a70565b84526020840193506020830192505060018101905062000969565b5050509392505050565b6000620009bb620009b58462000d61565b62000cda565b905082815260208101848484011115620009d457600080fd5b620009e184828562000e1a565b509392505050565b600082601f830112620009fb57600080fd5b815162000a0d8482602086016200089f565b91505092915050565b600082601f83011262000a2857600080fd5b815162000a3a8482602086016200092f565b91505092915050565b600082601f83011262000a5557600080fd5b815162000a67848260208601620009a4565b91505092915050565b60008151905062000a818162000f5a565b92915050565b6000806000806000806000806000806101408b8d03121562000aa857600080fd5b60008b015167ffffffffffffffff81111562000ac357600080fd5b62000ad18d828e01620009e9565b9a505060208b015167ffffffffffffffff81111562000aef57600080fd5b62000afd8d828e01620009e9565b99505060408b015167ffffffffffffffff81111562000b1b57600080fd5b62000b298d828e0162000a16565b98505060608b015167ffffffffffffffff81111562000b4757600080fd5b62000b558d828e0162000a16565b97505060808b015167ffffffffffffffff81111562000b7357600080fd5b62000b818d828e0162000a16565b96505060a08b015167ffffffffffffffff81111562000b9f57600080fd5b62000bad8d828e0162000a43565b95505060c08b015167ffffffffffffffff81111562000bcb57600080fd5b62000bd98d828e0162000a43565b94505060e062000bec8d828e0162000a70565b93505061010062000c008d828e0162000a70565b92505061012062000c148d828e0162000a70565b9150509295989b9194979a5092959850565b600062000c338262000d97565b62000c3f818562000da2565b935062000c5181856020860162000e1a565b62000c5c8162000f49565b840191505092915050565b62000c728162000e10565b82525050565b6000608082019050818103600083015262000c94818762000c26565b9050818103602083015262000caa818662000c26565b905062000cbb604083018562000c67565b818103606083015262000ccf818462000c26565b905095945050505050565b600062000ce662000cf9565b905062000cf4828262000e86565b919050565b6000604051905090565b600067ffffffffffffffff82111562000d215762000d2062000f1a565b5b602082029050602081019050919050565b600067ffffffffffffffff82111562000d505762000d4f62000f1a565b5b602082029050602081019050919050565b600067ffffffffffffffff82111562000d7f5762000d7e62000f1a565b5b62000d8a8262000f49565b9050602081019050919050565b600081519050919050565b600082825260208201905092915050565b600062000dc08262000e10565b915062000dcd8362000e10565b9250827fffffffffffffffffffffffffffffffffffffffffffffffffffffffffffffffff0382111562000e055762000e0462000ebc565b5b828201905092915050565b6000819050919050565b60005b8381101562000e3a57808201518184015260208101905062000e1d565b8381111562000e4a576000848401525b50505050565b6000600282049050600182168062000e6957607f821691505b6020821081141562000e805762000e7f62000eeb565b5b50919050565b62000e918262000f49565b810181811067ffffffffffffffff8211171562000eb35762000eb262000f1a565b5b80604052505050565b7f4e487b7100000000000000000000000000000000000000000000000000000000600052601160045260246000fd5b7f4e487b7100000000000000000000000000000000000000000000000000000000600052602260045260246000fd5b7f4e487b7100000000000000000000000000000000000000000000000000000000600052604160045260246000fd5b6000601f19601f8301169050919050565b62000f658162000e10565b811462000f7157600080fd5b50565b614d088062000f846000396000f3fe608060405234801561001057600080fd5b50600436106101375760003560e01c80637df124a1116100b8578063b88d4fde1161007c578063b88d4fde14610357578063c87b56dd14610373578063c8cf27f4146103a3578063d46855ba146103c1578063e985e9c5146103dd578063f946ca6c1461040d57610137565b80637df124a11461029657806395d89b41146102c657806398da4c95146102e4578063a22cb46514610319578063a9c326791461033557610137565b8063095ea7b3116100ff578063095ea7b3146101e257806323b872dd146101fe57806342842e0e1461021a5780636352211e1461023657806370a082311461026657610137565b806301ffc9a71461013c57806303b4f4b91461016c5780630665f9611461017657806306fdde0314610194578063081812fc146101b2575b600080fd5b6101566004803603810190610151919061329c565b61042b565b6040516101639190613b8b565b60405180910390f35b61017461050d565b005b61017e610a40565b60405161018b9190613f55565b60405180910390f35b61019c610b9c565b6040516101a99190613ba6565b60405180910390f35b6101cc60048036038101906101c791906132ee565b610c2e565b6040516101d99190613acb565b60405180910390f35b6101fc60048036038101906101f79190613260565b610cb3565b005b6102186004803603810190610213919061315a565b610dcb565b005b610234600480360381019061022f919061315a565b610e2b565b005b610250600480360381019061024b91906132ee565b610e4b565b60405161025d9190613acb565b60405180910390f35b610280600480360381019061027b91906130f5565b610efd565b60405161028d9190613f99565b60405180910390f35b6102b060048036038101906102ab91906130f5565b610fb5565b6040516102bd9190613f99565b60405180910390f35b6102ce610fcd565b6040516102db9190613ba6565b60405180910390f35b6102fe60048036038101906102f991906132ee565b61105f565b60405161031096959493929190613fb4565b60405180910390f35b610333600480360381019061032e9190613224565b6111ab565b005b61033d61132c565b60405161034e959493929190613d14565b60405180910390f35b610371600480360381019061036c91906131a9565b611460565b005b61038d600480360381019061038891906132ee565b6114c2565b60405161039a9190613ba6565b60405180910390f35b6103ab6116dd565b6040516103b89190613f77565b60405180910390f35b6103db60048036038101906103d691906132ee565b6118b5565b005b6103f760048036038101906103f2919061311e565b611d7d565b6040516104049190613b8b565b60405180910390f35b610415611e11565b6040516104229190613b69565b60405180910390f35b60007f80ac58cd000000000000000000000000000000000000000000000000000000007bffffffffffffffffffffffffffffffffffffffffffffffffffffffff1916827bffffffffffffffffffffffffffffffffffffffffffffffffffffffff191614806104f657507f5b5e139f000000000000000000000000000000000000000000000000000000007bffffffffffffffffffffffffffffffffffffffffffffffffffffffff1916827bffffffffffffffffffffffffffffffffffffffffffffffffffffffff1916145b80610506575061050582612074565b5b9050919050565b6000600e60003373ffffffffffffffffffffffffffffffffffffffff1673ffffffffffffffffffffffffffffffffffffffff1681526020019081526020016000205490506000600d60008381526020019081526020016000209050610620604051806080016040528060428152602001614c9160429139826001018054610593906142fa565b80601f01602080910402602001604051908101604052809291908181526020018280546105bf906142fa565b801561060c5780601f106105e15761010080835404028352916020019161060c565b820191906000526020600020905b8154815290600101906020018083116105ef57829003601f168201915b5050505050836003015484600401546120de565b6106db604051806060016040528060228152602001614bd7602291396006600001805461064c906142fa565b80601f0160208091040260200160405190810160405280929190818152602001828054610678906142fa565b80156106c55780601f1061069a576101008083540402835291602001916106c5565b820191906000526020600020905b8154815290600101906020018083116106a857829003601f168201915b50505050506006600201546006600301546120de565b6000816003015411610722576040517f08c379a000000000000000000000000000000000000000000000000000000000815260040161071990613e75565b60405180910390fd5b60006006600201541161076a576040517f08c379a000000000000000000000000000000000000000000000000000000000815260040161076190613e95565b60405180910390fd5b8060040154600660020154101561078b5760006006600201819055506107aa565b80600401546006600201546107a09190614210565b6006600201819055505b600660030154816003015410156107ca57600081600301819055506107e8565b60066003015481600301546107df9190614210565b81600301819055505b6108b96040518060400160405280602081526020017f2725732720706c617965642e204e657720626f737320766f6c756d653a202573815250826001018054610830906142fa565b80601f016020809104026020016040519081016040528092919081815260200182805461085c906142fa565b80156108a95780601f1061087e576101008083540402835291602001916108a9565b820191906000526020600020905b81548152906001019060200180831161088c57829003601f168201915b5050505050600660020154612180565b6109fa604051806060016040528060268152602001614bf960269139600660000180546108e5906142fa565b80601f0160208091040260200160405190810160405280929190818152602001828054610911906142fa565b801561095e5780601f106109335761010080835404028352916020019161095e565b820191906000526020600020905b81548152906001019060200180831161094157829003601f168201915b5050505050836001018054610972906142fa565b80601f016020809104026020016040519081016040528092919081815260200182805461099e906142fa565b80156109eb5780601f106109c0576101008083540402835291602001916109eb565b820191906000526020600020905b8154815290600101906020018083116109ce57829003601f168201915b5050505050846003015461221f565b7f8953de54f8d276737922d0f3cfa1e9b54d6de44d5ac52738e0b32d8bf3f43ddb6006600201548260030154604051610a34929190614023565b60405180910390a15050565b610a48612f1c565b60066040518060a0016040529081600082018054610a65906142fa565b80601f0160208091040260200160405190810160405280929190818152602001828054610a91906142fa565b8015610ade5780601f10610ab357610100808354040283529160200191610ade565b820191906000526020600020905b815481529060010190602001808311610ac157829003601f168201915b50505050508152602001600182018054610af7906142fa565b80601f0160208091040260200160405190810160405280929190818152602001828054610b23906142fa565b8015610b705780601f10610b4557610100808354040283529160200191610b70565b820191906000526020600020905b815481529060010190602001808311610b5357829003601f168201915b505050505081526020016002820154815260200160038201548152602001600482015481525050905090565b606060008054610bab906142fa565b80601f0160208091040260200160405190810160405280929190818152602001828054610bd7906142fa565b8015610c245780601f10610bf957610100808354040283529160200191610c24565b820191906000526020600020905b815481529060010190602001808311610c0757829003601f168201915b5050505050905090565b6000610c39826122c1565b610c78576040517f08c379a0000000000000000000000000000000000000000000000000000000008152600401610c6f90613ed5565b60405180910390fd5b6004600083815260200190815260200160002060009054906101000a900473ffffffffffffffffffffffffffffffffffffffff169050919050565b6000610cbe82610e4b565b90508073ffffffffffffffffffffffffffffffffffffffff168373ffffffffffffffffffffffffffffffffffffffff161415610d2f576040517f08c379a0000000000000000000000000000000000000000000000000000000008152600401610d2690613f15565b60405180910390fd5b8073ffffffffffffffffffffffffffffffffffffffff16610d4e61232d565b73ffffffffffffffffffffffffffffffffffffffff161480610d7d5750610d7c81610d7761232d565b611d7d565b5b610dbc576040517f08c379a0000000000000000000000000000000000000000000000000000000008152600401610db390613e15565b60405180910390fd5b610dc68383612335565b505050565b610ddc610dd661232d565b826123ee565b610e1b576040517f08c379a0000000000000000000000000000000000000000000000000000000008152600401610e1290613f35565b60405180910390fd5b610e268383836124cc565b505050565b610e4683838360405180602001604052806000815250611460565b505050565b6000806002600084815260200190815260200160002060009054906101000a900473ffffffffffffffffffffffffffffffffffffffff169050600073ffffffffffffffffffffffffffffffffffffffff168173ffffffffffffffffffffffffffffffffffffffff161415610ef4576040517f08c379a0000000000000000000000000000000000000000000000000000000008152600401610eeb90613e55565b60405180910390fd5b80915050919050565b60008073ffffffffffffffffffffffffffffffffffffffff168273ffffffffffffffffffffffffffffffffffffffff161415610f6e576040517f08c379a0000000000000000000000000000000000000000000000000000000008152600401610f6590613e35565b60405180910390fd5b600360008373ffffffffffffffffffffffffffffffffffffffff1673ffffffffffffffffffffffffffffffffffffffff168152602001908152602001600020549050919050565b600e6020528060005260406000206000915090505481565b606060018054610fdc906142fa565b80601f0160208091040260200160405190810160405280929190818152602001828054611008906142fa565b80156110555780601f1061102a57610100808354040283529160200191611055565b820191906000526020600020905b81548152906001019060200180831161103857829003601f168201915b5050505050905090565b600d602052806000526040600020600091509050806000015490806001018054611088906142fa565b80601f01602080910402602001604051908101604052809291908181526020018280546110b4906142fa565b80156111015780601f106110d657610100808354040283529160200191611101565b820191906000526020600020905b8154815290600101906020018083116110e457829003601f168201915b505050505090806002018054611116906142fa565b80601f0160208091040260200160405190810160405280929190818152602001828054611142906142fa565b801561118f5780601f106111645761010080835404028352916020019161118f565b820191906000526020600020905b81548152906001019060200180831161117257829003601f168201915b5050505050908060030154908060040154908060050154905086565b6111b361232d565b73ffffffffffffffffffffffffffffffffffffffff168273ffffffffffffffffffffffffffffffffffffffff161415611221576040517f08c379a000000000000000000000000000000000000000000000000000000000815260040161121890613dd5565b60405180910390fd5b806005600061122e61232d565b73ffffffffffffffffffffffffffffffffffffffff1673ffffffffffffffffffffffffffffffffffffffff16815260200190815260200160002060008473ffffffffffffffffffffffffffffffffffffffff1673ffffffffffffffffffffffffffffffffffffffff16815260200190815260200160002060006101000a81548160ff0219169083151502179055508173ffffffffffffffffffffffffffffffffffffffff166112db61232d565b73ffffffffffffffffffffffffffffffffffffffff167f17307eab39ab6107e8899845ad3d59bd9653f200f220920489ca2b5937696c31836040516113209190613b8b565b60405180910390a35050565b600680600001805461133d906142fa565b80601f0160208091040260200160405190810160405280929190818152602001828054611369906142fa565b80156113b65780601f1061138b576101008083540402835291602001916113b6565b820191906000526020600020905b81548152906001019060200180831161139957829003601f168201915b5050505050908060010180546113cb906142fa565b80601f01602080910402602001604051908101604052809291908181526020018280546113f7906142fa565b80156114445780601f1061141957610100808354040283529160200191611444565b820191906000526020600020905b81548152906001019060200180831161142757829003601f168201915b5050505050908060020154908060030154908060040154905085565b61147161146b61232d565b836123ee565b6114b0576040517f08c379a00000000000000000000000000000000000000000000000000000000081526004016114a790613f35565b60405180910390fd5b6114bc84848484612728565b50505050565b60606000600d60008481526020019081526020016000206040518060c0016040529081600082015481526020016001820180546114fe906142fa565b80601f016020809104026020016040519081016040528092919081815260200182805461152a906142fa565b80156115775780601f1061154c57610100808354040283529160200191611577565b820191906000526020600020905b81548152906001019060200180831161155a57829003601f168201915b50505050508152602001600282018054611590906142fa565b80601f01602080910402602001604051908101604052809291908181526020018280546115bc906142fa565b80156116095780601f106115de57610100808354040283529160200191611609565b820191906000526020600020905b8154815290600101906020018083116115ec57829003601f168201915b505050505081526020016003820154815260200160048201548152602001600582015481525050905060006116418260600151612784565b905060006116528360800151612784565b905060006116638460a00151612784565b905060006116a9856020015161167889612784565b8760400151878787604051602001611695969594939291906139e3565b604051602081830303815290604052612931565b90506000816040516020016116be9190613aa9565b6040516020818303038152906040529050809650505050505050919050565b6116e5612f4b565b6000600e60003373ffffffffffffffffffffffffffffffffffffffff1673ffffffffffffffffffffffffffffffffffffffff16815260200190815260200160002054905060008111156118a457600d60008281526020019081526020016000206040518060c00160405290816000820154815260200160018201805461176a906142fa565b80601f0160208091040260200160405190810160405280929190818152602001828054611796906142fa565b80156117e35780601f106117b8576101008083540402835291602001916117e3565b820191906000526020600020905b8154815290600101906020018083116117c657829003601f168201915b505050505081526020016002820180546117fc906142fa565b80601f0160208091040260200160405190810160405280929190818152602001828054611828906142fa565b80156118755780601f1061184a57610100808354040283529160200191611875565b820191906000526020600020905b81548152906001019060200180831161185857829003601f168201915b5050505050815260200160038201548152602001600482015481526020016005820154815250509150506118b2565b6118ac612f4b565b80925050505b90565b60006118c1600b612aef565b90506118cd3382612afd565b6040518060c00160405280838152602001600c8481548110611918577f4e487b7100000000000000000000000000000000000000000000000000000000600052603260045260246000fd5b90600052602060002090600602016001018054611934906142fa565b80601f0160208091040260200160405190810160405280929190818152602001828054611960906142fa565b80156119ad5780601f10611982576101008083540402835291602001916119ad565b820191906000526020600020905b81548152906001019060200180831161199057829003601f168201915b50505050508152602001600c84815481106119f1577f4e487b7100000000000000000000000000000000000000000000000000000000600052603260045260246000fd5b90600052602060002090600602016002018054611a0d906142fa565b80601f0160208091040260200160405190810160405280929190818152602001828054611a39906142fa565b8015611a865780601f10611a5b57610100808354040283529160200191611a86565b820191906000526020600020905b815481529060010190602001808311611a6957829003601f168201915b50505050508152602001600c8481548110611aca577f4e487b7100000000000000000000000000000000000000000000000000000000600052603260045260246000fd5b9060005260206000209060060201600301548152602001600c8481548110611b1b577f4e487b7100000000000000000000000000000000000000000000000000000000600052603260045260246000fd5b9060005260206000209060060201600401548152602001600c8481548110611b6c577f4e487b7100000000000000000000000000000000000000000000000000000000600052603260045260246000fd5b906000526020600020906006020160050154815250600d6000838152602001908152602001600020600082015181600001556020820151816001019080519060200190611bba929190612f81565b506040820151816002019080519060200190611bd7929190612f81565b50606082015181600301556080820151816004015560a08201518160050155905050611cf0604051806060016040528060328152602001614c1f60329139600c8481548110611c4f577f4e487b7100000000000000000000000000000000000000000000000000000000600052603260045260246000fd5b90600052602060002090600602016001018054611c6b906142fa565b80601f0160208091040260200160405190810160405280929190818152602001828054611c97906142fa565b8015611ce45780601f10611cb957610100808354040283529160200191611ce4565b820191906000526020600020905b815481529060010190602001808311611cc757829003601f168201915b505050505083856120de565b80600e60003373ffffffffffffffffffffffffffffffffffffffff1673ffffffffffffffffffffffffffffffffffffffff16815260200190815260200160002081905550611d3e600b61205e565b7fba30ddbb814aa9b4090572a09666517baaf3e810d526059bbc76bd6227adbab5338284604051611d7193929190613b32565b60405180910390a15050565b6000600560008473ffffffffffffffffffffffffffffffffffffffff1673ffffffffffffffffffffffffffffffffffffffff16815260200190815260200160002060008373ffffffffffffffffffffffffffffffffffffffff1673ffffffffffffffffffffffffffffffffffffffff16815260200190815260200160002060009054906101000a900460ff16905092915050565b6060600c805480602002602001604051908101604052809291908181526020016000905b82821015611fb357838290600052602060002090600602016040518060c001604052908160008201548152602001600182018054611e72906142fa565b80601f0160208091040260200160405190810160405280929190818152602001828054611e9e906142fa565b8015611eeb5780601f10611ec057610100808354040283529160200191611eeb565b820191906000526020600020905b815481529060010190602001808311611ece57829003601f168201915b50505050508152602001600282018054611f04906142fa565b80601f0160208091040260200160405190810160405280929190818152602001828054611f30906142fa565b8015611f7d5780601f10611f5257610100808354040283529160200191611f7d565b820191906000526020600020905b815481529060010190602001808311611f6057829003601f168201915b50505050508152602001600382015481526020016004820154815260200160058201548152505081526020019060010190611e35565b50505050905090565b61205884848484604051602401611fd69493929190613c67565b6040516020818303038152906040527f8d142cdd000000000000000000000000000000000000000000000000000000007bffffffffffffffffffffffffffffffffffffffffffffffffffffffff19166020820180517bffffffffffffffffffffffffffffffffffffffffffffffffffffffff8381831617835250505050612b1b565b50505050565b6001816000016000828254019250508190555050565b60007f01ffc9a7000000000000000000000000000000000000000000000000000000007bffffffffffffffffffffffffffffffffffffffffffffffffffffffff1916827bffffffffffffffffffffffffffffffffffffffffffffffffffffffff1916149050919050565b61217a848484846040516024016120f89493929190613cc1565b6040516020818303038152906040527fd5cf17d0000000000000000000000000000000000000000000000000000000007bffffffffffffffffffffffffffffffffffffffffffffffffffffffff19166020820180517bffffffffffffffffffffffffffffffffffffffffffffffffffffffff8381831617835250505050612b1b565b50505050565b61221a83838360405160240161219893929190613c22565b6040516020818303038152906040527ff362ca59000000000000000000000000000000000000000000000000000000007bffffffffffffffffffffffffffffffffffffffffffffffffffffffff19166020820180517bffffffffffffffffffffffffffffffffffffffffffffffffffffffff8381831617835250505050612b1b565b505050565b6122bb848484846040516024016122399493929190613bc8565b6040516020818303038152906040527f9fd009f5000000000000000000000000000000000000000000000000000000007bffffffffffffffffffffffffffffffffffffffffffffffffffffffff19166020820180517bffffffffffffffffffffffffffffffffffffffffffffffffffffffff8381831617835250505050612b1b565b50505050565b60008073ffffffffffffffffffffffffffffffffffffffff166002600084815260200190815260200160002060009054906101000a900473ffffffffffffffffffffffffffffffffffffffff1673ffffffffffffffffffffffffffffffffffffffff1614159050919050565b600033905090565b816004600083815260200190815260200160002060006101000a81548173ffffffffffffffffffffffffffffffffffffffff021916908373ffffffffffffffffffffffffffffffffffffffff160217905550808273ffffffffffffffffffffffffffffffffffffffff166123a883610e4b565b73ffffffffffffffffffffffffffffffffffffffff167f8c5be1e5ebec7d5bd14f71427d1e84f3dd0314c0f7b2291e5b200ac8c7c3b92560405160405180910390a45050565b60006123f9826122c1565b612438576040517f08c379a000000000000000000000000000000000000000000000000000000000815260040161242f90613df5565b60405180910390fd5b600061244383610e4b565b90508073ffffffffffffffffffffffffffffffffffffffff168473ffffffffffffffffffffffffffffffffffffffff1614806124b257508373ffffffffffffffffffffffffffffffffffffffff1661249a84610c2e565b73ffffffffffffffffffffffffffffffffffffffff16145b806124c357506124c28185611d7d565b5b91505092915050565b8273ffffffffffffffffffffffffffffffffffffffff166124ec82610e4b565b73ffffffffffffffffffffffffffffffffffffffff1614612542576040517f08c379a000000000000000000000000000000000000000000000000000000000815260040161253990613ef5565b60405180910390fd5b600073ffffffffffffffffffffffffffffffffffffffff168273ffffffffffffffffffffffffffffffffffffffff1614156125b2576040517f08c379a00000000000000000000000000000000000000000000000000000000081526004016125a990613db5565b60405180910390fd5b6125bd838383612b44565b6125c8600082612335565b6001600360008573ffffffffffffffffffffffffffffffffffffffff1673ffffffffffffffffffffffffffffffffffffffff16815260200190815260200160002060008282546126189190614210565b925050819055506001600360008473ffffffffffffffffffffffffffffffffffffffff1673ffffffffffffffffffffffffffffffffffffffff168152602001908152602001600020600082825461266f919061412f565b92505081905550816002600083815260200190815260200160002060006101000a81548173ffffffffffffffffffffffffffffffffffffffff021916908373ffffffffffffffffffffffffffffffffffffffff160217905550808273ffffffffffffffffffffffffffffffffffffffff168473ffffffffffffffffffffffffffffffffffffffff167fddf252ad1be2c89b69c2b068fc378daa952ba7f163c4a11628f55a4df523b3ef60405160405180910390a4505050565b6127338484846124cc565b61273f84848484612b49565b61277e576040517f08c379a000000000000000000000000000000000000000000000000000000000815260040161277590613d75565b60405180910390fd5b50505050565b606060008214156127cc576040518060400160405280600181526020017f3000000000000000000000000000000000000000000000000000000000000000815250905061292c565b600082905060005b600082146127fe5780806127e79061435d565b915050600a826127f79190614185565b91506127d4565b60008167ffffffffffffffff811115612840577f4e487b7100000000000000000000000000000000000000000000000000000000600052604160045260246000fd5b6040519080825280601f01601f1916602001820160405280156128725781602001600182028036833780820191505090505b5090505b600085146129255760018261288b9190614210565b9150600a8561289a91906143a6565b60306128a6919061412f565b60f81b8183815181106128e2577f4e487b7100000000000000000000000000000000000000000000000000000000600052603260045260246000fd5b60200101907effffffffffffffffffffffffffffffffffffffffffffffffffffffffffffff1916908160001a905350600a8561291e9190614185565b9450612876565b8093505050505b919050565b6060600082519050600081141561295a5760405180602001604052806000815250915050612aea565b6000600360028361296b919061412f565b6129759190614185565b600461298191906141b6565b90506000602082612992919061412f565b67ffffffffffffffff8111156129d1577f4e487b7100000000000000000000000000000000000000000000000000000000600052604160045260246000fd5b6040519080825280601f01601f191660200182016040528015612a035781602001600182028036833780820191505090505b5090506000604051806060016040528060408152602001614c51604091399050600181016020830160005b86811015612aa75760038101905062ffffff818a015116603f8160121c168401518060081b905060ff603f83600c1c1686015116810190508060081b905060ff603f8360061c1686015116810190508060081b905060ff603f831686015116810190508060e01b90508084526004840193505050612a2e565b506003860660018114612ac15760028114612ad157612adc565b613d3d60f01b6002830352612adc565b603d60f81b60018303525b508484525050819450505050505b919050565b600081600001549050919050565b612b17828260405180602001604052806000815250612ce0565b5050565b60008151905060006a636f6e736f6c652e6c6f679050602083016000808483855afa5050505050565b505050565b6000612b6a8473ffffffffffffffffffffffffffffffffffffffff16612d3b565b15612cd3578373ffffffffffffffffffffffffffffffffffffffff1663150b7a02612b9361232d565b8786866040518563ffffffff1660e01b8152600401612bb59493929190613ae6565b602060405180830381600087803b158015612bcf57600080fd5b505af1925050508015612c0057506040513d601f19601f82011682018060405250810190612bfd91906132c5565b60015b612c83573d8060008114612c30576040519150601f19603f3d011682016040523d82523d6000602084013e612c35565b606091505b50600081511415612c7b576040517f08c379a0000000000000000000000000000000000000000000000000000000008152600401612c7290613d75565b60405180910390fd5b805181602001fd5b63150b7a0260e01b7bffffffffffffffffffffffffffffffffffffffffffffffffffffffff1916817bffffffffffffffffffffffffffffffffffffffffffffffffffffffff191614915050612cd8565b600190505b949350505050565b612cea8383612d4e565b612cf76000848484612b49565b612d36576040517f08c379a0000000000000000000000000000000000000000000000000000000008152600401612d2d90613d75565b60405180910390fd5b505050565b600080823b905060008111915050919050565b600073ffffffffffffffffffffffffffffffffffffffff168273ffffffffffffffffffffffffffffffffffffffff161415612dbe576040517f08c379a0000000000000000000000000000000000000000000000000000000008152600401612db590613eb5565b60405180910390fd5b612dc7816122c1565b15612e07576040517f08c379a0000000000000000000000000000000000000000000000000000000008152600401612dfe90613d95565b60405180910390fd5b612e1360008383612b44565b6001600360008473ffffffffffffffffffffffffffffffffffffffff1673ffffffffffffffffffffffffffffffffffffffff1681526020019081526020016000206000828254612e63919061412f565b92505081905550816002600083815260200190815260200160002060006101000a81548173ffffffffffffffffffffffffffffffffffffffff021916908373ffffffffffffffffffffffffffffffffffffffff160217905550808273ffffffffffffffffffffffffffffffffffffffff16600073ffffffffffffffffffffffffffffffffffffffff167fddf252ad1be2c89b69c2b068fc378daa952ba7f163c4a11628f55a4df523b3ef60405160405180910390a45050565b6040518060a0016040528060608152602001606081526020016000815260200160008152602001600081525090565b6040518060c001604052806000815260200160608152602001606081526020016000815260200160008152602001600081525090565b828054612f8d906142fa565b90600052602060002090601f016020900481019282612faf5760008555612ff6565b82601f10612fc857805160ff1916838001178555612ff6565b82800160010185558215612ff6579182015b82811115612ff5578251825591602001919060010190612fda565b5b5090506130039190613007565b5090565b5b80821115613020576000816000905550600101613008565b5090565b600061303761303284614071565b61404c565b90508281526020810184848401111561304f57600080fd5b61305a8482856142b8565b509392505050565b60008135905061307181614b7a565b92915050565b60008135905061308681614b91565b92915050565b60008135905061309b81614ba8565b92915050565b6000815190506130b081614ba8565b92915050565b600082601f8301126130c757600080fd5b81356130d7848260208601613024565b91505092915050565b6000813590506130ef81614bbf565b92915050565b60006020828403121561310757600080fd5b600061311584828501613062565b91505092915050565b6000806040838503121561313157600080fd5b600061313f85828601613062565b925050602061315085828601613062565b9150509250929050565b60008060006060848603121561316f57600080fd5b600061317d86828701613062565b935050602061318e86828701613062565b925050604061319f868287016130e0565b9150509250925092565b600080600080608085870312156131bf57600080fd5b60006131cd87828801613062565b94505060206131de87828801613062565b93505060406131ef878288016130e0565b925050606085013567ffffffffffffffff81111561320c57600080fd5b613218878288016130b6565b91505092959194509250565b6000806040838503121561323757600080fd5b600061324585828601613062565b925050602061325685828601613077565b9150509250929050565b6000806040838503121561327357600080fd5b600061328185828601613062565b9250506020613292858286016130e0565b9150509250929050565b6000602082840312156132ae57600080fd5b60006132bc8482850161308c565b91505092915050565b6000602082840312156132d757600080fd5b60006132e5848285016130a1565b91505092915050565b60006020828403121561330057600080fd5b600061330e848285016130e0565b91505092915050565b600061332383836138a5565b905092915050565b61333481614244565b82525050565b6000613345826140b2565b61334f81856140e0565b935083602082028501613361856140a2565b8060005b8581101561339d578484038952815161337e8582613317565b9450613389836140d3565b925060208a01995050600181019050613365565b50829750879550505050505092915050565b6133b881614256565b82525050565b60006133c9826140bd565b6133d381856140f1565b93506133e38185602086016142c7565b6133ec81614493565b840191505092915050565b6000613402826140c8565b61340c8185614102565b935061341c8185602086016142c7565b61342581614493565b840191505092915050565b600061343b826140c8565b6134458185614113565b93506134558185602086016142c7565b61345e81614493565b840191505092915050565b6000613474826140c8565b61347e8185614124565b935061348e8185602086016142c7565b80840191505092915050565b60006134a7600283614124565b91506134b2826144a4565b600282019050919050565b60006134ca600b83614124565b91506134d5826144cd565b600b82019050919050565b60006134ed601383614124565b91506134f8826144f6565b601382019050919050565b6000613510603283614113565b915061351b8261451f565b604082019050919050565b6000613533601c83614113565b915061353e8261456e565b602082019050919050565b6000613556602483614113565b915061356182614597565b604082019050919050565b6000613579601983614113565b9150613584826145e6565b602082019050919050565b600061359c602c83614113565b91506135a78261460f565b604082019050919050565b60006135bf603683614124565b91506135ca8261465e565b603682019050919050565b60006135e2603883614113565b91506135ed826146ad565b604082019050919050565b6000613605602a83614113565b9150613610826146fc565b604082019050919050565b6000613628602983614113565b91506136338261474b565b604082019050919050565b600061364b603483614113565b91506136568261479a565b604082019050919050565b600061366e602283614124565b9150613679826147e9565b602282019050919050565b6000613691606283614124565b915061369c82614838565b606282019050919050565b60006136b4602383614113565b91506136bf826148d3565b604082019050919050565b60006136d7602083614113565b91506136e282614922565b602082019050919050565b60006136fa600183614124565b91506137058261494b565b600182019050919050565b600061371d602c83614113565b915061372882614974565b604082019050919050565b6000613740602983614113565b915061374b826149c3565b604082019050919050565b6000613763600a83614124565b915061376e82614a12565b600a82019050919050565b6000613786600283614124565b915061379182614a3b565b600282019050919050565b60006137a9602183614124565b91506137b482614a64565b602182019050919050565b60006137cc602183614113565b91506137d782614ab3565b604082019050919050565b60006137ef601d83614124565b91506137fa82614b02565b601d82019050919050565b6000613812603183614113565b915061381d82614b2b565b604082019050919050565b600060a083016000830151848203600086015261384582826133f7565b9150506020830151848203602086015261385f82826133f7565b915050604083015161387460408601826139c5565b50606083015161388760608601826139c5565b50608083015161389a60808601826139c5565b508091505092915050565b600060c0830160008301516138bd60008601826139c5565b50602083015184820360208601526138d582826133f7565b915050604083015184820360408601526138ef82826133f7565b915050606083015161390460608601826139c5565b50608083015161391760808601826139c5565b5060a083015161392a60a08601826139c5565b508091505092915050565b600060c08301600083015161394d60008601826139c5565b506020830151848203602086015261396582826133f7565b9150506040830151848203604086015261397f82826133f7565b915050606083015161399460608601826139c5565b5060808301516139a760808601826139c5565b5060a08301516139ba60a08601826139c5565b508091505092915050565b6139ce816142ae565b82525050565b6139dd816142ae565b82525050565b60006139ee82613756565b91506139fa8289613469565b9150613a05826134bd565b9150613a118288613469565b9150613a1c82613684565b9150613a288287613469565b9150613a33826135b2565b9150613a3f8286613469565b9150613a4a826134e0565b9150613a5582613661565b9150613a618285613469565b9150613a6c8261349a565b9150613a778261379c565b9150613a838284613469565b9150613a8e826136ed565b9150613a9982613779565b9150819050979650505050505050565b6000613ab4826137e2565b9150613ac08284613469565b915081905092915050565b6000602082019050613ae0600083018461332b565b92915050565b6000608082019050613afb600083018761332b565b613b08602083018661332b565b613b1560408301856139d4565b8181036060830152613b2781846133be565b905095945050505050565b6000606082019050613b47600083018661332b565b613b5460208301856139d4565b613b6160408301846139d4565b949350505050565b60006020820190508181036000830152613b83818461333a565b905092915050565b6000602082019050613ba060008301846133af565b92915050565b60006020820190508181036000830152613bc08184613430565b905092915050565b60006080820190508181036000830152613be28187613430565b90508181036020830152613bf68186613430565b90508181036040830152613c0a8185613430565b9050613c1960608301846139d4565b95945050505050565b60006060820190508181036000830152613c3c8186613430565b90508181036020830152613c508185613430565b9050613c5f60408301846139d4565b949350505050565b60006080820190508181036000830152613c818187613430565b90508181036020830152613c958186613430565b9050613ca460408301856139d4565b8181036060830152613cb68184613430565b905095945050505050565b60006080820190508181036000830152613cdb8187613430565b90508181036020830152613cef8186613430565b9050613cfe60408301856139d4565b613d0b60608301846139d4565b95945050505050565b600060a0820190508181036000830152613d2e8188613430565b90508181036020830152613d428187613430565b9050613d5160408301866139d4565b613d5e60608301856139d4565b613d6b60808301846139d4565b9695505050505050565b60006020820190508181036000830152613d8e81613503565b9050919050565b60006020820190508181036000830152613dae81613526565b9050919050565b60006020820190508181036000830152613dce81613549565b9050919050565b60006020820190508181036000830152613dee8161356c565b9050919050565b60006020820190508181036000830152613e0e8161358f565b9050919050565b60006020820190508181036000830152613e2e816135d5565b9050919050565b60006020820190508181036000830152613e4e816135f8565b9050919050565b60006020820190508181036000830152613e6e8161361b565b9050919050565b60006020820190508181036000830152613e8e8161363e565b9050919050565b60006020820190508181036000830152613eae816136a7565b9050919050565b60006020820190508181036000830152613ece816136ca565b9050919050565b60006020820190508181036000830152613eee81613710565b9050919050565b60006020820190508181036000830152613f0e81613733565b9050919050565b60006020820190508181036000830152613f2e816137bf565b9050919050565b60006020820190508181036000830152613f4e81613805565b9050919050565b60006020820190508181036000830152613f6f8184613828565b905092915050565b60006020820190508181036000830152613f918184613935565b905092915050565b6000602082019050613fae60008301846139d4565b92915050565b600060c082019050613fc960008301896139d4565b8181036020830152613fdb8188613430565b90508181036040830152613fef8187613430565b9050613ffe60608301866139d4565b61400b60808301856139d4565b61401860a08301846139d4565b979650505050505050565b600060408201905061403860008301856139d4565b61404560208301846139d4565b9392505050565b6000614056614067565b9050614062828261432c565b919050565b6000604051905090565b600067ffffffffffffffff82111561408c5761408b614464565b5b61409582614493565b9050602081019050919050565b6000819050602082019050919050565b600081519050919050565b600081519050919050565b600081519050919050565b6000602082019050919050565b600082825260208201905092915050565b600082825260208201905092915050565b600082825260208201905092915050565b600082825260208201905092915050565b600081905092915050565b600061413a826142ae565b9150614145836142ae565b9250827fffffffffffffffffffffffffffffffffffffffffffffffffffffffffffffffff0382111561417a576141796143d7565b5b828201905092915050565b6000614190826142ae565b915061419b836142ae565b9250826141ab576141aa614406565b5b828204905092915050565b60006141c1826142ae565b91506141cc836142ae565b9250817fffffffffffffffffffffffffffffffffffffffffffffffffffffffffffffffff0483118215151615614205576142046143d7565b5b828202905092915050565b600061421b826142ae565b9150614226836142ae565b925082821015614239576142386143d7565b5b828203905092915050565b600061424f8261428e565b9050919050565b60008115159050919050565b60007fffffffff0000000000000000000000000000000000000000000000000000000082169050919050565b600073ffffffffffffffffffffffffffffffffffffffff82169050919050565b6000819050919050565b82818337600083830152505050565b60005b838110156142e55780820151818401526020810190506142ca565b838111156142f4576000848401525b50505050565b6000600282049050600182168061431257607f821691505b6020821081141561432657614325614435565b5b50919050565b61433582614493565b810181811067ffffffffffffffff8211171561435457614353614464565b5b80604052505050565b6000614368826142ae565b91507fffffffffffffffffffffffffffffffffffffffffffffffffffffffffffffffff82141561439b5761439a6143d7565b5b600182019050919050565b60006143b1826142ae565b91506143bc836142ae565b9250826143cc576143cb614406565b5b828206905092915050565b7f4e487b7100000000000000000000000000000000000000000000000000000000600052601160045260246000fd5b7f4e487b7100000000000000000000000000000000000000000000000000000000600052601260045260246000fd5b7f4e487b7100000000000000000000000000000000000000000000000000000000600052602260045260246000fd5b7f4e487b7100000000000000000000000000000000000000000000000000000000600052604160045260246000fd5b6000601f19601f8301169050919050565b7f7d2c000000000000000000000000000000000000000000000000000000000000600082015250565b7f202d2d204e465420233a20000000000000000000000000000000000000000000600082015250565b7f2c20226d61785f76616c7565223a3235357d2c00000000000000000000000000600082015250565b7f4552433732313a207472616e7366657220746f206e6f6e20455243373231526560008201527f63656976657220696d706c656d656e7465720000000000000000000000000000602082015250565b7f4552433732313a20746f6b656e20616c7265616479206d696e74656400000000600082015250565b7f4552433732313a207472616e7366657220746f20746865207a65726f2061646460008201527f7265737300000000000000000000000000000000000000000000000000000000602082015250565b7f4552433732313a20617070726f766520746f2063616c6c657200000000000000600082015250565b7f4552433732313a206f70657261746f7220717565727920666f72206e6f6e657860008201527f697374656e7420746f6b656e0000000000000000000000000000000000000000602082015250565b7f222c202261747472696275746573223a205b207b202274726169745f7479706560008201527f223a2022566f6c756d65222c202276616c7565223a2000000000000000000000602082015250565b7f4552433732313a20617070726f76652063616c6c6572206973206e6f74206f7760008201527f6e6572206e6f7220617070726f76656420666f7220616c6c0000000000000000602082015250565b7f4552433732313a2062616c616e636520717565727920666f7220746865207a6560008201527f726f206164647265737300000000000000000000000000000000000000000000602082015250565b7f4552433732313a206f776e657220717565727920666f72206e6f6e657869737460008201527f656e7420746f6b656e0000000000000000000000000000000000000000000000602082015250565b7f4572726f723a20496e737472756d656e7420766f6c756d65206973203020616e60008201527f642063616e277420706c617920616e796d6f7265000000000000000000000000602082015250565b7f7b202274726169745f74797065223a20224e6f746573222c202276616c75652260008201527f3a20000000000000000000000000000000000000000000000000000000000000602082015250565b7f222c20226465736372697074696f6e223a20225468697320697320616e204e4660008201527f542074686174206c6574732070656f706c6520706c617920696e20746865206760208201527f616d65204d657461766572736520536c6179657221222c2022696d616765223a60408201527f2022000000000000000000000000000000000000000000000000000000000000606082015250565b7f4572726f723a20426f73732047756974617220697320616c726561647920646560008201527f61642e0000000000000000000000000000000000000000000000000000000000602082015250565b7f4552433732313a206d696e7420746f20746865207a65726f2061646472657373600082015250565b7f7d00000000000000000000000000000000000000000000000000000000000000600082015250565b7f4552433732313a20617070726f76656420717565727920666f72206e6f6e657860008201527f697374656e7420746f6b656e0000000000000000000000000000000000000000602082015250565b7f4552433732313a207472616e73666572206f6620746f6b656e2074686174206960008201527f73206e6f74206f776e0000000000000000000000000000000000000000000000602082015250565b7f7b226e616d65223a202200000000000000000000000000000000000000000000600082015250565b7f5d7d000000000000000000000000000000000000000000000000000000000000600082015250565b7f7b202274726169745f74797065223a202253697a65222c202276616c7565223a60008201527f2000000000000000000000000000000000000000000000000000000000000000602082015250565b7f4552433732313a20617070726f76616c20746f2063757272656e74206f776e6560008201527f7200000000000000000000000000000000000000000000000000000000000000602082015250565b7f646174613a6170706c69636174696f6e2f6a736f6e3b6261736536342c000000600082015250565b7f4552433732313a207472616e736665722063616c6c6572206973206e6f74206f60008201527f776e6572206e6f7220617070726f766564000000000000000000000000000000602082015250565b614b8381614244565b8114614b8e57600080fd5b50565b614b9a81614256565b8114614ba557600080fd5b50565b614bb181614262565b8114614bbc57600080fd5b50565b614bc8816142ae565b8114614bd357600080fd5b5056fe426f73732025732068617320766f6c756d6520257320616e64202573206e6f746573426f7373202725732720706c617965642e204e6577202725732720766f6c756d653a2025730a4d696e746564202573204e465420772f20746f6b656e496420257320616e6420696e737472756d656e74496e6465782025734142434445464748494a4b4c4d4e4f505152535455565758595a6162636465666768696a6b6c6d6e6f707172737475767778797a303132333435363738392b2f0a506c6179657220772f20696e737472756d656e742025732061626f757420746f20706c61792e2048617320766f6c756d6520257320616e64202573206e6f746573a2646970667358221220eea7e6558661391f67a20ab1cd66adb059f777fe3a822c2b56c400b5e9884eaa64736f6c63430008040033446f6e6520696e697469616c697a696e6720257320772f20766f6c756d652025732c20696d67202573446f6e6520696e697469616c697a696e6720626f737320257320772f20766f6c756d652025732c20696d67202573",
  "linkReferences": {},
  "deployedLinkReferences": {}
}